:100000000C9444010C946C010C946C010C945907F1
:100010000C9459070C9459070C946C010C946C01C6
:100020000C946C010C946C010C946C010C94F5060E
:100030000C946C010C946C010C946C010C946C018C
:100040000C94F90B0C946C010C9433040C940D0477
:100050000C946C010C946C010C946C010C946C016C
:100060000C946C010C946C015573696E6720746874
:100070006520666F6C6C6F77696E67206B65793A87
:10008000005468697320636F6465207363616E2038
:10009000746865204D494641524520436C61737335
:1000A000736963204E5549442E00556E6B6E6F7711
:1000B0006E20747970650053414B20696E646963EA
:1000C0006174657320554944206973206E6F7420F4
:1000D000636F6D706C6574652E004D4946415245E5
:1000E00020544E5033585858004D494641524520EF
:1000F00044455346697265004D494641524520507A
:100100006C7573004D494641524520556C747261BF
:100110006C69676874206F7220556C7472616C69C9
:100120006768742043004D494641524520344B4294
:10013000004D494641524520314B42004D49464110
:100140005245204D696E692C20333230206279741B
:100150006573005049434320636F6D706C69616E35
:100160007420776974682049534F2F4945432031E3
:100170003830393220284E46432900504943432025
:10018000636F6D706C69616E742077697468204963
:10019000534F2F4945432031343434332D340043F9
:1001A00061726420726561642070726576696F7532
:1001B000736C792E00496E206465633A2000496EA5
:1001C000206865783A2000546865204E55494420DF
:1001D0007461672069733A0041206E65772063611E
:1001E000726420686173206265656E206465746561
:1001F000637465642E00596F75722074616720699D
:1002000073206E6F74206F662074797065204D497D
:100210004641524520436C61737369632E00504917
:10022000434320747970653A2000000000002400E8
:1002300027002A0000000008000201000003040754
:100240000000000000000000000000002300260065
:10025000290000000000250028002B0004040404ED
:100260000404040402020202020203030303030360
:10027000010204081020408001020408102001023D
:100280000408102029120D1211241FBECFEFD8E050
:10029000DEBFCDBF11E0A0E0B1E0E8E9FEE202C0C0
:1002A00005900D92A23BB107D9F723E0A2EBB1E094
:1002B00001C01D92AB32B207E1F711E0C3E4D1E017
:1002C00004C02197FE010E943D15C234D107C9F731
:1002D0000E94880C0C943F170C940000CF92DF9280
:1002E000EF92FF920F931F93CF93DF936C017A01EC
:1002F0008B01C0E0D0E0CE15DF0581F0D8016D9113
:100300008D01D601ED91FC910190F081E02DC601A7
:100310000995892B11F02196EECF7E01C701DF915F
:10032000CF911F910F91FF90EF90DF90CF900895A4
:10033000FC01538D448D252F30E0842F90E0821BEB
:10034000930B541710F0CF96089501970895FC0170
:10035000918D828D981761F0828DDF01A80FB11DFC
:100360005D968C91928D9F5F9F73928F90E0089520
:100370008FEF9FEF0895FC01918D828D981731F0DA
:10038000828DE80FF11D858D90E008958FEF9FEF2E
:100390000895FC01918D228D892F90E0805C9F4F04
:1003A000821B91098F739927089588E292E00E9439
:1003B000C90121E0892B09F420E0822F0895FC0176
:1003C000848DDF01A80FB11DA35ABF4F2C91848DDE
:1003D00090E001968F739927848FA689B7892C9313
:1003E000A089B1898C91837080648C93938D848D66
:1003F000981306C00288F389E02D80818F7D808369
:100400000895EF92FF920F931F93CF93DF93EC0128
:1004100081E0888F9B8D8C8D981305C0E889F989C0
:10042000808185FD26C0F62E0B8D10E00F5F1F4FDB
:100430000F731127E02E8C8DE8120CC00FB607FC4D
:10044000FACFE889F989808185FFF5CFCE010E9436
:10045000DF01F1CF8B8DFE01E80FF11DE35AFF4F55
:10046000F0829FB7F8940B8FEA89FB8980818062C4
:100470000AC09FB7F894EE89FF896083E889F989FB
:1004800080818370806480839FBF81E090E0DF91F2
:10049000CF911F910F91FF90EF900895CF93DF932D
:1004A000EC01888D8823C9F0EA89FB89808185FD6C
:1004B00005C0A889B9898C9186FD0FC00FB607FCCD
:1004C000F5CF808185FFF2CFA889B9898C9185FF0E
:1004D000EDCFCE010E94DF01E7CFDF91CF910895EC
:1004E00080E090E0892B29F00E94D50181110C94C5
:1004F00000000895BC016E5F7F4FDC01ED91FC911F
:100500000190F081E02D40E0099591E0811190E0AB
:10051000892F08952091B4013091B501281739072A
:1005200071F49091B2018091B301981741F0E0917C
:10053000B201F0E0ED53FE4F808190E008958FEF1F
:100540009FEF089508951F93CF93DF93DC015C968E
:100550008D919C915D97009739F421E030E01396DE
:100560003C932E9312973BC05196ED91FC9152977C
:1005700050962C915097322F30951FB75E964C9124
:100580005E97742F727041FD6095F89440817723D7
:1005900011F0422B01C043234083EC012197F1F776
:1005A00048E0508160FF02C0522B01C053235083AA
:1005B000EC012197F1F76695415099F780817723F7
:1005C00019F08323808302C0282B20831FBF5C96F1
:1005D0008D919C915D970197F1F781E090E0DF911B
:1005E000CF911F9108952091B4013091B501281742
:1005F000390771F48091B3012091B20190E0805CE1
:100600009F4F821B910960E470E00E9415150895C8
:1006100080E090E008952091B4013091B501281751
:100620003907B9F49091B2018091B301981789F01C
:10063000E091B201F0E0ED53FE4F80812091B201D4
:1006400030E02F5F3F4F2F7333272093B20190E0AC
:1006500008958FEF9FEF0895089580E090E008954A
:100660000E942A170F931F93CF93DF93EC01888189
:100670009981009729F02A813B812617370788F452
:100680008B016F5F7F4F0E946416009761F0998322
:1006900088831B830A832C813D81232B11F4FC0169
:1006A000108281E001C080E0DF91CF911F910F9116
:1006B0000895EF92FF920F931F93CF93DF936115ED
:1006C000710511F480E01CC041155105C1F07B019A
:1006D000EC018C819D818A01080F191FB801CE01A0
:1006E0000E943203882371F3288139818C819D8196
:1006F000B701820F931F0E9438171D830C8381E07E
:10070000DF91CF911F910F91FF90EF900895CF93BC
:10071000DF93EC0188819981009711F00E94DB152D
:10072000198218821D821C821B821A82DF91CF914E
:100730000895CF93DF93EC016115710561F0FB0122
:1007400001900020E9F73197AF01461B570B0E943B
:100750005903811103C0CE010E948703CE01DF91AE
:10076000CF910895EF92FF920F931F93CF93DF9352
:10077000EC017B018A01BA010E943203811104C09D
:10078000CE010E94870307C01D830C83B7018881B7
:1007900099810E943817CE01DF91CF911F910F915F
:1007A000FF90EF900895CF93DF93EC01FB01861744
:1007B000970761F0608171816115710529F04481AD
:1007C00055810E94B20302C00E948703CE01DF91CF
:1007D000CF910895FC01808191810C94DB15FC017F
:1007E0001182108213821282158214820C94D30318
:1007F000FC0111821082138212821582148261150B
:10080000710551F0FB0101900020E9F73197AF012C
:10081000461B570B0C94B20308951F920F920FB60C
:100820000F9211242F933F934F935F936F937F9376
:100830008F939F93AF93BF93EF93FF9388E292E0E0
:100840000E94DF01FF91EF91BF91AF919F918F9136
:100850007F916F915F914F913F912F910F900FBEBC
:100860000F901F9018951F920F920FB60F921124A0
:100870002F938F939F93EF93FF93E0913802F09122
:1008800039028081E0913E02F0913F0282FD12C068
:100890009081809141028F5F8F7320914202821775
:1008A00051F0E0914102F0E0E85DFD4F958F8093BB
:1008B000410201C08081FF91EF919F918F912F9113
:1008C0000F900FBE0F901F90189508958EBD0000D9
:1008D0000DB407FEFDCF8EB508958CBD9DBD089566
:1008E0001F93CF93DF93EC01162F83E590E00E94D6
:1008F0006D0460E08E850E946D09812F80680E94E2
:10090000660480E00E946604182F61E08E850E94D4
:100910006D09812FDF91CF911F9108950F931F9340
:10092000CF93DF93EC01062F142F83E590E00E9414
:100930006D0460E08E850E946D09802F0E94660420
:10094000812F0E94660461E08E85DF91CF911F9117
:100950000F910C946D09CF92DF92EF92FF920F935B
:100960001F93CF93DF93EC016B01142F790140E0CB
:1009700062E00E948E0444E06AE0CE010E948E0490
:1009800040E864E1CE010E948E04A601612FCE01F1
:100990000E94F80943E062E0CE010E948E0408E85C
:1009A00013E16AE0CE010E94700482FF13C040E0B0
:1009B00062E0CE010E948E0464E4CE010E947004C5
:1009C000F701808362E4CE010E947004F701818305
:1009D00080E004C00150110921F783E0DF91CF913D
:1009E0001F910F91FF90EF90DF90CF9008950F939C
:1009F0001F93CF93DF938C01D62FC42F0E947004D6
:100A0000C0954C2F48236D2FC801DF91CF911F91C6
:100A10000F910C948E048F929F92AF92CF92EF928F
:100A2000FF920F931F93CF93DF9300D000D01F92BC
:100A3000CDB7DEB74C0182E08D8340E064E2C401B3
:100A40000E948E0440E066E2C4010E948E0446E2E9
:100A500068E4C4010E948E0486E28B838D8182301B
:100A600018F140E86CE1C4010E94F70487E08C8330
:100A7000A12CC12CCE0104967C018E010B5F1F4F6F
:100A80009E012F5F3F4F41E0BE016D5F7F4FC4016C
:100A90000E942A0A81110BC08D81823039F481E0D5
:100AA0009C81911104C008C084E001C081E091E004
:100AB000823019F090E001C091E0892F0F900F90E3
:100AC0000F900F900F90DF91CF911F910F91FF909A
:100AD000EF90CF90AF909F908F9008952F923F927C
:100AE0004F925F926F927F928F929F92AF92BF923E
:100AF000CF92DF92EF92FF920F931F93CF93DF93EA
:100B0000CDB7DEB72C970FB6F894DEBF0FBECDBFC2
:100B1000413508F006C1342E3B014C0140E86CE140
:100B20000E94F7042224239432E0231691F083E0FC
:100B30002816E1F091E02912F6C083E98983332079
:100B4000D1F081E0F3019081953008F480E0B12C80
:100B500017C0F5E9F983332081F081E0F30190813A
:100B6000983008F480E043E0B42E0AC087E9898316
:100B700036E0B32E04C0B12C02C023E0B22E80E0D8
:100B8000D32CF8E0BF9ED0181124D7FCD12C882399
:100B900021F098E89B8333E001C032E021E09D2DF5
:100BA000977009F420E09D2D959595959595290FC1
:100BB00031F4882309F492C038E0D30E8FC081113C
:100BC00002C094E001C093E0291708F4922FEB2DA6
:100BD000F0E03196E60DF71D232F4191A1E0B0E042
:100BE000AC0FBD1FA20FB11D4C932F5F422F431BB3
:100BF000491798F3DECF8111DEC09FE19D150CF4FB
:100C000094C080E2D82E90E79A839B818C818927BB
:100C10009D8189279E8189278F839E01285F3F4F71
:100C200047E0BE016F5F7F4FC4010E94AB0481119A
:100C3000A3C01A86E3E0EB87CE0107962C0199E06A
:100C40009C87CA844C2D4295407F4C0D6AE1C401BB
:100C50000E948E04A12CCE010A967C018E01055FB4
:100C60001F4F92014C85BE016F5F7F4FC4010E94F0
:100C70002A0A182F823009F0BECF6CE1C4010E940D
:100C8000700485FD98C08F7109F480E2282F30E050
:100C90004D2DDD0C550B421753070CF044C0D82ED8
:100CA00085958595859591E0980F422F477081E055
:100CB00009F480E0890FE1E0F0E0EC0FFD1FE80FA0
:100CC000F11D215031092770332781E090E001C0E8
:100CD000880F2A95EAF79081892B80838FE18D1503
:100CE0000CF491CF9D2D97709A878D2D85958595C4
:100CF00085958E5F292FE0E18E9F200D11242A8398
:100D000021E0911101C020E0280F2C874424439456
:100D1000512C4C0E5D1E480E511CF9E0F81BFB8750
:100D200090CF16E048C015E046C08B81883809F4A2
:100D30003FC082E094E0EB2DF0E03196E60DF71D28
:100D4000980FA1E0B0E0AC0FBD1FA80FB11D2C9112
:100D500021938F5F8913F5CF8B85833029F58A85A1
:100D6000811122C09E012D5F3F4F41E0B201C401BD
:100D70000E94AB04882311F0182F1DC09B81F20143
:100D80008181981313C09C81828198130FC0808148
:100D900082FF02C02394C8CEF3018387822D880F7F
:100DA000820D8F5F808307C011E005C017E003C08C
:100DB00083E093E0C0CF812F2C960FB6F894DEBF6E
:100DC0000FBECDBFDF91CF911F910F91FF90EF909C
:100DD000DF90CF90BF90AF909F908F907F906F905B
:100DE0005F904F903F902F9008951F920F920FB6F3
:100DF0000F9211242F933F938F939F93EF93FF9321
:100E00008091270287FF05C0109285001092840010
:100E100005C08091270287FD8091270280912702DB
:100E20008F5F809327028091270287FF20C08091E7
:100E300027028C30E4F42091840030918500809169
:100E40002702082E000C990BFC01EE0FFF1F8E0FDE
:100E50009F1FFC01ED5FFD4F81819281820F931FE7
:100E600090938900809388008091270217C0809119
:100E7000840090918500049680349C4918F480E4A5
:100E80009CE905C080918400909185000496909320
:100E90008900809388008FEF80932702FF91EF9164
:100EA0009F918F913F912F910F900FBE0F901F90A8
:100EB00018951F920F920FB60F9211242F933F9304
:100EC0004F935F936F937F938F939F93AF93BF9352
:100ED000EF93FF93E091B401F091B501309709F4DD
:100EE00051C0968DA685B785858591FF04C09C91DC
:100EF000892329F447C09C91892309F043C0A38921
:100F0000B4899C918589809589238C93868997895A
:100F10000197F1F7608D718DA685B785558538E00D
:100F200020E0CB010197F1F7822F90E0959587950E
:100F3000282F4C91452309F02068315091F7868D78
:100F400081FD20958091B30190E001968F739927E0
:100F50003091B201381749F0A091B301B0E0AD5320
:100F6000BE4F2C938093B30103C0868D8160868F22
:100F7000828D938D0197F1F7A389B4899C9185891E
:100F8000892B8C93FF91EF91BF91AF919F918F919E
:100F90007F916F915F914F913F912F910F900FBE75
:100FA0000F901F901895EF92FF920F931F93CF937E
:100FB000DF93EC018C01060F111DC017D107A9F0BA
:100FC0007E018881803118F08AE791E002C087E7CE
:100FD00091E00E9411082196F701608170E080E0A5
:100FE00090E040E10E942308E8CFDF91CF911F916C
:100FF0000F91FF90EF900895CF93DF93EC010E9443
:10100000ED0B7D836C8328813981621B730B81E03A
:101010002A813B81621773070CF480E0DF91CF9146
:101020000895009769F0FC0101900020E9F73197DD
:10103000AF01481B590BBC0188E292E00C946E0191
:1010400080E090E008958F929F92AF92BF920F93AD
:101050001F93CF93DF93CDB7DEB7A1970FB6F89468
:10106000DEBF0FBECDBF19A2423008F44AE08E01A8
:101070000F5D1F4F842E912CA12CB12CA501940142
:101080000E94BD14E62FB901CA0101501109EA30CE
:1010900014F4E05D01C0E95CD801EC93232B242B10
:1010A000252B61F7C8010E941108A1960FB6F8948C
:1010B000DEBF0FBECDBFDF91CF911F910F91BF90CB
:1010C000AF909F908F9008950F931F93CF93DF93CE
:1010D0008C01C0E0D0E0F801EC0FFD1F64916623A5
:1010E00041F088E292E00E940102892B11F02196E2
:1010F000F2CFCE01DF91CF911F910F910895CF9341
:10110000DF930E946408EC018EE891E00E941108D0
:101110008C0F9D1FDF91CF9108950F931F93CF9355
:10112000DF9300D000D000D0CDB7DEB78C01BC017A
:10113000CE0101960E94EF036FEA71E0CE010196A5
:101140000E949903BC01C8010E94D303CE010196FD
:101150000E94EA03F801448155814115510551F07F
:1011600060817181FB018081882321F08FEF92E003
:101170000E946E0126960FB6F894DEBF0FBECDBF5B
:10118000DF91CF911F910F910895CF93DF93EC01E1
:10119000FB0144815581608171810E945903811155
:1011A00003C0CE010E948703CE01DF91CF91089545
:1011B000EF92FF920F931F93CF93DF93CDB7DEB7DC
:1011C00062970FB6F894DEBF0FBECDBF8C01CB0186
:1011D000F8011182108213821282158214824AE071
:1011E0009E012F5F3F4F7901B9010E945613F7010D
:1011F00001900020E9F73197AF014E195F09B7015F
:10120000C8010E94B20362960FB6F894DEBF0FBE0B
:10121000CDBFDF91CF911F910F91FF90EF90089577
:101220000F931F930E94ED0B609330027093310275
:10123000809332029093330288E292E00E94A701E9
:1012400097FF1FC00E94ED0B0091300210913102F8
:101250002091320230913302DC01CB01801B910BD3
:10126000A20BB30B00912C0210912D0220912E02A3
:1012700030912F0280179107A207B307E8F28FEF92
:101280009FEF1F910F910895833081F028F48130F2
:1012900099F08230A1F008958730A9F08830B9F034
:1012A0008430D1F4809180008F7D03C080918000D4
:1012B0008F7780938000089584B58F7702C084B5BE
:1012C0008F7D84BD08958091B0008F7703C0809199
:1012D000B0008F7D8093B00008951F93CF93DF936C
:1012E000282F30E0F901EC5CFD4F8491F901E059C1
:1012F000FD4FD491F901E45AFD4FC491CC23C1F0C4
:10130000162F81110E944409EC2FF0E0EE0FFF1F11
:10131000EE5AFD4FA591B4919FB7F894111104C0F6
:101320008C91D095D82302C0EC91DE2BDC939FBF2B
:10133000DF91CF911F9108950F931F9360E08091EB
:10134000D9020E946D0983E090E00197F1F761E016
:101350008091D9020E946D0983E290E00197F1F734
:1013600060E08091D9020E946D098091DB0290912A
:10137000DC029927FC01E059FD4F6491FC01E45A1D
:10138000FD4FE491F0E0EE0FFF1FE85BFD4F85910C
:10139000949100E412E42FE030E0462F0E94430CC9
:1013A000611571058105910549F0DC01CB010196BC
:1013B000A11DB11DBC01CD019F7003C060E070E0B4
:1013C000CB010E948D1326E933E44BE05DE30E94DC
:1013D000C81320E030E040E05FE30E94C8130E94A1
:1013E000DF147093E0026093DF021F910F91089564
:1013F000DF92EF92FF920F931F93CF93DF938C01B5
:10140000F62ED42EE52E83E590E00E946D0460E078
:10141000F80186850E946D0982E10E946604CD2D47
:10142000DE2DCE018F0D911D7C01EC16FD0621F005
:1014300089910E946604F9CF61E0F80186850E94D7
:101440006D09DF91CF911F910F91FF90EF90DF9089
:101450000C9465044F925F926F927F928F929F924D
:10146000AF92BF92CF92DF92EF92FF920F931F93B2
:10147000CF93DF9300D0CDB7DEB74C012B01D42E34
:101480003901E114F10419F0F701408101C040E095
:10149000B42EF0E1CF9EB00C112440E062E0C40114
:1014A0000E948E044FE768E0C4010E948E0440E869
:1014B00064E1C4010E948E04A2016D2DC4010E944A
:1014C000F8094B2D6AE1C4010E948E044CE062E0F1
:1014D000C4010E948E046AE1C4010E947004482F76
:1014E00040686AE1C4010E948E0480ED482E87E0C6
:1014F000582E68E0C4010E947004982F907341F444
:1015000080FD04C081E0481A510899F783E0A0C02B
:101510006CE0C4010E947004D82E837109F095C05C
:101520006114710409F45AC00115110509F456C07B
:1015300064E1C4010E947004B82EF80180818B150B
:1015400008F47DC0B082BB20F1F183E590E00E94F9
:101550006D0460E0F40186850E946D09BA9482E909
:101560000E946604CC20A9F08FEF90E02C0101C00E
:10157000440CCA94EAF782E90E946604242D20955F
:10158000F301908192238421892B8083CC24C394FE
:1015900001C0C12C4C2C512C460C571CCB1438F4D8
:1015A00082E90E946604F2018083C394F3CF80E055
:1015B0000E946604F201808361E0F40186850E9446
:1015C0006D090E94650468E1C4010E94700487707F
:1015D000E114F10421F0F701808301C080E0D3FC25
:1015E00030C06114710479F10115110561F1AA206F
:1015F00051F1F8014081413021F4843041F58FEF01
:1016000027C0423020F1811122C042509E012F5F3D
:101610003F4FB301C4010E94AB04811119C0F8010E
:101620008081680E711CF301329790818981981333
:101630000EC0319690818A81981309C004C084E05D
:1016400007C082E005C080E003C081E001C087E000
:101650000F900F90DF91CF911F910F91FF90EF901E
:10166000DF90CF90BF90AF909F908F907F906F90C2
:101670005F904F900895CF93DF9390E0FC01E05985
:10168000FD4F2491FC01E45AFD4F8491882361F1C0
:1016900090E0880F991FFC01E65DFD4FC591D49144
:1016A000FC01EE5AFD4FA591B491611109C09FB79D
:1016B000F8948881209582238883EC912E230BC097
:1016C000623061F49FB7F8948881322F309583237C
:1016D0008883EC912E2B2C939FBF06C08FB7F89474
:1016E000E8812E2B28838FBFDF91CF9108958E3014
:1016F00008F08E508770806480937C0080917A001F
:10170000806480937A0080917A0086FDFCCF80917E
:1017100078002091790090E0922B08958F929F920B
:10172000AF92BF92CF92DF92EF92FF926B017C015A
:101730000E94C80B4B015C01C114D104E104F10407
:10174000F1F00E94C80BDC01CB0188199909AA09A4
:10175000BB09883E9340A105B10570F321E0C21A90
:10176000D108E108F10888EE880E83E0981EA11CDC
:10177000B11CC114D104E104F10419F7DDCFFF90CD
:10178000EF90DF90CF90BF90AF909F908F90089593
:101790003FB7F8948091230390912403A0912503EF
:1017A000B091260326B5A89B05C02F3F19F00196DE
:1017B000A11DB11D3FBFBA2FA92F982F8827820FD7
:1017C000911DA11DB11DBC01CD0142E0660F771F27
:1017D000881F991F4A95D1F708952FB7F894609103
:1017E0001F037091200380912103909122032FBF4A
:1017F00008951F920F920FB60F9211242F933F93CB
:101800008F939F93AF93BF9380911F039091200379
:10181000A0912103B091220330911E0323E0230FF6
:101820002D3720F40196A11DB11D05C026E8230F18
:101830000296A11DB11D20931E0380931F03909358
:101840002003A0932103B09322038091230390915E
:101850002403A0912503B09126030196A11DB11D7B
:101860008093230390932403A0932503B09326032E
:10187000BF91AF919F918F913F912F910F900FBE8C
:101880000F901F901895CF92DF92EF92FF920F93D7
:101890001F93E82FF92F05C00150110921093109C3
:1018A00061F1908196239417B9F305C00150110995
:1018B0002109310911F1908196239413F7CFC12C9E
:1018C000D12CE12CF12C0AC08FEFC81AD80AE80AF3
:1018D000F80A0C151D052E053F0579F08081862339
:1018E000841791F36C2D7D2D8E2D9F2D1F910F91BF
:1018F000FF90EF90DF90CF90089560E070E080E07F
:1019000090E01F910F91FF90EF90DF90CF9008959E
:10191000CF93DF93CDB7DEB768970FB6F894DEBFED
:101920000FBECDBF789484B5826084BD84B58160DC
:1019300084BD85B5826085BD85B5816085BD80919A
:101940006E00816080936E00109281008091810012
:10195000826080938100809181008160809381000A
:10196000809180008160809380008091B1008460CC
:101970008093B1008091B00081608093B00080912D
:101980007A00846080937A0080917A0082608093EC
:101990007A0080917A00816080937A0080917A0049
:1019A000806880937A001092C10085E090E00E94E8
:1019B00043154C0184E090E0F4019183808385E03D
:1019C00090E093838283148261E084E00E943B0B69
:1019D00061E0F40182810E943B0B9092C2018092EF
:1019E000C101E0913802F091390282E08083E091F8
:1019F0003402F09135021082E0913602F091370204
:101A00008FEC808310924002E0913C02F0913D0205
:101A100086E08083E0913A02F0913B028081806110
:101A20008083E0913A02F0913B028081886080835C
:101A3000E0913A02F0913B02808180688083E091DE
:101A40003A02F0913B0280818F7D808310921A03CD
:101A50001092190310921803109217031092160394
:101A6000109215038DE991E090931C0380931B0362
:101A700090910B03963108F058C02DEB30E0309375
:101A80001603209315032BE931E0309318032093BC
:101A900017032CE231E030931A032093190340918D
:101AA0006800983058F031E09E3008F430E021E0D2
:101AB000822F01C0880F3A95EAF701C084E0842B99
:101AC00080936800983038F09E3040F0963148F4AA
:101AD0002CE630E008C02DE630E005C02BE630E013
:101AE00002C020E030E030931303209312039830BB
:101AF00030F481E001C0880F9A95EAF70EC0292FD3
:101B000030E09E3018F42850310902C02E503109BF
:101B100081E001C0880F2A95EAF780931403809131
:101B20001B0390911C030197F1F780911903909189
:101B30001A03892B49F1E091B401F091B50122E03B
:101B4000EF3FF20709F1309739F0A389B4899C91EE
:101B50008589809589238C9380911D038E7F809346
:101B60001D031092B3011092B2018FEF92E0909397
:101B7000B5018093B401E0911203F09113039081B9
:101B800080911403892B80831FB7F8948091B6014C
:101B9000811127C0E6E6F2E08491EAE7F2E0949151
:101BA000E82FF0E0EE0FFF1FE65DFD4FA591B49129
:101BB000EC91E92321F461E08AE00E946D0961E083
:101BC0008AE00E943B0B8CB580618CBD8CB5806433
:101BD0008CBD61E08DE00E943B0B61E08BE00E94D8
:101BE0003B0B8091B6018F5F8093B6011FBF61E010
:101BF0008091D7020E943B0B61E08091D7020E9446
:101C00006D098091D8028F3F41F44FE062E089EC8A
:101C100092E00E948E0413E025C060E00E943B0B1E
:101C20002091D80230E0F901EC5CFD4F8491F9017C
:101C3000E059FD4F0491F901E45AFD4F149111232D
:101C4000F9F081110E944409E12FF0E0EE0FFF1F2F
:101C5000E85BFD4FA591B491EC91E02389F0D5CFDD
:101C6000115039F162E370E080E090E00E948E0B49
:101C700062E089EC92E00E94700484FF1AC0F0CF09
:101C800061E08091D8020E943B0B60E08091D80215
:101C90000E946D0983E090E00197F1F761E0809187
:101CA000D8020E946D0962E370E080E090E00E943B
:101CB0008E0B40E064E289EC92E00E948E0440E0EA
:101CC00066E289EC92E00E948E0446E268E489ECC8
:101CD00092E00E948E0440E864E589EC92E00E9464
:101CE0008E0449EA66E589EC92E00E948E0443E0A6
:101CF00068E589EC92E00E948E0448EE6AE589EC82
:101D000092E00E948E0440E46AE289EC92E00E9434
:101D10008E044DE362E289EC92E00E948E0468E258
:101D200089EC92E00E947004982F9370933039F000
:101D3000482F436068E289EC92E00E948E048FEFA6
:101D40008093B7018093B8018093B9018093BA0161
:101D50008093BB018093BC0181E890E00E947F08E2
:101D600088E690E00E94640866E087EB91E00E94BC
:101D7000D3074E018DE0880E911C88E292E00E940C
:101D8000C901892B81F160E971E0CE0107960E94BB
:101D9000F8030E94100997FD0FC08A30910561F089
:101DA00089831A8241E050E0BE016F5F7F4FCE0110
:101DB00007960E945903EDCF8B859C85892B79F07E
:101DC000BE01695F7F4FCE0101960E94EF03CE01F5
:101DD00001960E948D08CE0101960E94EA03CE0171
:101DE00007960E94EA038091C5020E94770B853F07
:101DF000914024F48091C702811109C08091C502ED
:101E00000E94770B853F91400CF0F0C21CC00091FE
:101E1000C1011091C201F8018481882309F4BEC276
:101E20001092C70281E08093C8028091FB02882350
:101E300051F01092FB021092F4021092F3021092F1
:101E4000F8021092F7028091F202882309F48AC006
:101E50008CE791E00E9411088EE891E00E94110841
:101E60008AEE92E00E94FC07882309F47BC000916F
:101E7000C1011091C20160E0F80180810E946D09EA
:101E800060E0F80182810E946D0960E08091FC02AF
:101E90000E946D091092FE021092F2021092EB0263
:101EA0001092EA021092EF021092EE028091F0027C
:101EB0009091F102019709F055C00E949C0964E6D7
:101EC00070E080E090E00E948E0B0E949C0960917F
:101ED000DF027091E002CE0101960E94D808609165
:101EE000DD027091DE02CE0107960E94D80861E9FA
:101EF00071E0C4010E94F803BE01695F7F4FC40115
:101F00000E94C5086CE971E00E949903BE016F5FF1
:101F10007F4F0E94C5086CEA71E00E949903BC01E2
:101F2000CE0143960E94EF03C4010E94EA03CE0152
:101F300007960E94EA03CE0101960E94EA03BE01C1
:101F40006D5E7F4FCE0101960E94EF03CE01019698
:101F50000E948D08CE0101960E94EA03CE014396AD
:101F60000E94EA038091E902882309F488C081EE87
:101F700092E00E94FC07882309F481C00091C1010E
:101F80001091C20160E0F80180810E946D0960E05B
:101F9000F80182810E946D0960E08091FC020E943C
:101FA0006D091092FE021092E9021092E202109264
:101FB000E1021092E6021092E5028091E702909110
:101FC000E802019709F05BC064EF71E080E090E007
:101FD0000E948E0B0E949C0968EC70E080E090E00B
:101FE0000E948E0B0E949C096091DF027091E002BA
:101FF000CE0101960E94D8086091DD027091DE0248
:10200000CE0107960E94D80861E971E0C4010E94E0
:10201000F803BE01695F7F4FC4010E94C5086CE9E7
:1020200071E00E949903BE016F5F7F4F0E94C50857
:102030006CEA71E00E949903BC01CE0143960E94B4
:10204000EF03C4010E94EA03CE0107960E94EA034F
:10205000CE0101960E94EA03BE016D5E7F4FCE0164
:1020600001960E94EF03CE0101960E948D08CE01D9
:1020700001960E94EA03CE0143960E94EA038091F2
:10208000FB02882309F441C083EF92E00E94FC0721
:102090008823D9F10091C1011091C201F801848116
:1020A000882349F18091F202811125C060E080818E
:1020B0000E946D0961E0F80182810E946D0961E072
:1020C0008091FC020E946D0981E08093FE02F8017C
:1020D00014829091E90291110EC021E030E030931A
:1020E000E8022093E7028093E9020E94ED0B7093CF
:1020F000E2026093E1021092FB021092F40210924D
:10210000F3021092F8021092F70266E071E0CE013D
:1021100007960E94F8038FEF92E00E94F302892B4A
:10212000A1F18FEF92E00E94F302892B71F18FEF02
:1021300092E00E94F302892BD1F38FEF92E00E948C
:102140000B038A3011F11A8219821C821B821E82B3
:102150001D828D871E86F40101900020E9F73197DA
:10216000AF0148195909B401CE0101960E94B2038A
:102170004D815E8169817A81CE0107960E94590363
:10218000CE0101960E94EA03CCCF4B855C854115B8
:10219000510571F06F817885FB018081882341F0C2
:1021A00088E292E00E946E018EE891E00E941108A0
:1021B00089EC92E00E940B05882309F4E8C089ECC1
:1021C00092E00E947A02882309F4E1C08EE192E055
:1021D0000E946408E091D602EF77E134B8F5F0E0B0
:1021E000E85FFE4F1081153029F168F41230E1F0FC
:1021F00018F4113079F12BC01330C9F0143039F5CF
:1022000081E391E029C01830D9F038F41630A9F0F4
:102210001730E9F488EF90E01FC01930A1F01F3F9C
:10222000B1F487EB90E018C083E591E015C08CE332
:1022300091E012C086E291E00FC084E091E00CC012
:1022400089EE90E009C08AED90E006C010E08AEACD
:1022500090E002C08BE791E00E947F08135013309A
:1022600028F086EF91E00E947F0891C09091CC0207
:102270008091BD01981313C09091CD028091BE0151
:1022800098130DC09091CE028091BF01981307C0A2
:102290009091CF028091C001981709F44EC088ED4B
:1022A00091E00E947F088091CC028093BD018091D3
:1022B000CD028093BE018091CE028093BF018091B8
:1022C000CF028093C00187EC91E00E947F088EEBE3
:1022D00091E00E9464086091CB028CEC92E00E9435
:1022E000D3078EE891E00E94110885EB91E00E94EF
:1022F0006408E090CB020CEC12E0F12CEF14C1F07A
:102300006801F8018081803118F487E791E002C00C
:102310008AE791E00E9411080F5F1F4FF60160816C
:1023200070E080E090E04AE00E942308F394E6CF5A
:102330008EE891E00E94110804C08FE991E00E94AC
:102340007F0880E589831A829E012D5F3F4F42E01E
:10235000BE016F5F7F4F89EC92E00E94AB04811158
:1023600010C0A12CC12CE12CF12C00E010E020E0E9
:1023700030E044E0BE016F5F7F4F89EC92E00E9445
:102380002A0A48E060E189EC92E00E94F704CE015D
:1023900007960E94EA030E947002EFCC8091F2023D
:1023A00081113ECD61E080810E946D0960E0F801FD
:1023B00082810E946D0961E08091FC020E946D099A
:1023C00081E08093FE02F80184839091F2029111E2
:1023D00027CD1092F1021092F0028093F2020E9437
:1023E000ED0B7093EB026093EA021ACD8091C80264
:1023F000882309F428CD81E08093C7021092C80297
:102400009091FB0291111FCD8093FB020E94ED0B76
:102410007093F4026093F30216CD89E691E09093F5
:1024200000038093FF028091B4019091B5018F5F0A
:10243000924071F4E0911203F09113039081809126
:1024400014038095892380831092B5011092B40102
:10245000089510922B0210922A0288EE93E0A0E0D9
:10246000B0E080932C0290932D02A0932E02B093A3
:102470002F022DE431E0309329022093280225EC2D
:1024800030E0309335022093340224EC30E0309376
:1024900037022093360220EC30E03093390220934B
:1024A000380221EC30E030933B0220933A0222ECD8
:1024B00030E030933D0220933C0226EC30E0309334
:1024C0003F0220933E02109241021092420210926B
:1024D000430210924402109202031092010380936F
:1024E000030390930403A0930503B093060389E6C6
:1024F00091E0909300038093FF02109216031092D4
:102500001503109218031092170310921A031092D9
:10251000190310921C0310921B0360911D036E7F20
:102520006D7F60931D036695617081E0682783E08D
:102530000E946D0961E083E00E943B0BE3E7F2E05B
:10254000E491E0930F03EFE5F2E0E491F0E0EE0FA9
:10255000FF1FEE5AFD4F8591949190931103809344
:10256000100360E082E00E943B0B80911D0381FD1F
:1025700004C061E082E00E946D0982E080930B0359
:10258000E2E7F2E0E491E0930C03EEE5F2E0E4919F
:10259000F0E0EE0FFF1FE85BFD4F85919491909363
:1025A0000E0380930D038CE090E09093FD028093E6
:1025B000FC0261E00E943B0B60E08091FC020E9403
:1025C0006D091092FE021092F4021092F30288EB51
:1025D0009BE09093F6028093F5021092F80210921D
:1025E000F7021092FA021092F9021092FB02109276
:1025F000EB021092EA0288EE93E09093ED02809352
:10260000EC021092EF021092EE021092F102109280
:10261000F0021092F2021092E2021092E10282E3C2
:1026200090E09093E4028093E3021092E60210920D
:10263000E5021092E8021092E7021092E90286E0A9
:1026400090E09093DA028093D90287E090E0909333
:10265000DC028093DB0261E086E00E943B0B60E0DD
:102660008091DB020E943B0B81E090E09093DE02C0
:102670008093DD021092E0021092DF028FE591E07C
:102680009093CA028093C9028AE08093D70289E0BE
:102690008093D8028EE090E09093C6028093C502AA
:1026A00081E08093C7028093C8020895BB274A3017
:1026B00031F4992322F4BDE2909581959F4F0C94BB
:1026C0006213BB27FB015527AA27880F991FAA1F52
:1026D000A41710F0A41B83955051B9F7A05DAA333D
:1026E00008F0A95DA193009779F7B111B193119208
:1026F000CB010C947B13DC01FC01672F71917723D4
:10270000E1F7329704C07C916D9370836291AE17AC
:10271000BF07C8F30895E89409C097FB3EF490956D
:102720008095709561957F4F8F4F9F4F9923A9F0AA
:10273000F92F96E9BB279395F69587957795679539
:10274000B795F111F8CFFAF4BB0F11F460FF1BC07D
:102750006F5F7F4F8F4F9F4F16C0882311F096E910
:1027600011C0772321F09EE8872F762F05C06623BE
:1027700071F096E8862F70E060E02AF09A95660F77
:10278000771F881FDAF7880F9695879597F9089530
:102790000E94DB130C944C140E943E1438F00E94EB
:1027A000451420F0952311F00C9435140C943B142F
:1027B00011240C9480140E945D1470F3959FC1F352
:1027C000950F50E0551F629FF001729FBB27F00DDF
:1027D000B11D639FAA27F00DB11DAA1F649F662734
:1027E000B00DA11D661F829F2227B00DA11D621F83
:1027F000739FB00DA11D621F839FA00D611D221F3D
:10280000749F3327A00D611D231F849F600D211D20
:10281000822F762F6A2F11249F5750409AF0F1F0A3
:1028200088234AF0EE0FFF1FBB1F661F771F881F0C
:1028300091505040A9F79E3F510580F00C943514FB
:102840000C9480145F3FE4F3983ED4F3869577951B
:102850006795B795F795E7959F5FC1F7FE2B880FB2
:10286000911D9695879597F9089597F99F6780E848
:1028700070E060E008959FEF80EC089500240A94D2
:102880001616170618060906089500240A9412164B
:102890001306140605060895092E0394000C11F47E
:1028A000882352F0BB0F40F4BF2B11F460FF04C02B
:1028B0006F5F7F4F8F4F9F4F089557FD9058440F84
:1028C000551F59F05F3F71F04795880F97FB991F8F
:1028D00061F09F3F79F0879508951216130614064C
:1028E000551FF2CF4695F1DF08C0161617061806D9
:1028F000991FF1CF86957105610508940895E894B4
:10290000BB2766277727CB0197F908952F923F922F
:102910004F925F926F927F928F929F92AF92BF92EF
:10292000CF92DF92EF92FF920F931F93CF93DF939B
:10293000CDB7DEB7CA1BDB0B0FB6F894DEBF0FBEF8
:10294000CDBF09942A88398848885F846E847D8445
:102950008C849B84AA84B984C884DF80EE80FD8047
:102960000C811B81AA81B981CE0FD11D0FB6F894BD
:10297000DEBF0FBECDBFED010895A1E21A2EAA1B46
:10298000BB1BFD010DC0AA1FBB1FEE1FFF1FA2171F
:10299000B307E407F50720F0A21BB30BE40BF50B1C
:1029A000661F771F881F991F1A9469F760957095A5
:1029B000809590959B01AC01BD01CF0108950E94C7
:1029C000E6146894B1110C94801408950E94651463
:1029D00088F09F5798F0B92F9927B751B0F0E1F0E0
:1029E000660F771F881F991F1AF0BA95C9F714C090
:1029F000B13091F00E947F14B1E008950C947F14DF
:102A0000672F782F8827B85F39F0B93FCCF38695C8
:102A100077956795B395D9F73EF490958095709525
:102A200061957F4F8F4F9F4F089597FB072E16F4A8
:102A3000009407D077FD09D00E94291507FC05D026
:102A40003EF4909581959F4F0895709561957F4FC5
:102A50000895AA1BBB1B51E107C0AA1FBB1FA617E5
:102A6000B70710F0A61BB70B881F991F5A95A9F737
:102A700080959095BC01CD010895EE0FFF1F059044
:102A8000F491E02D09940F931F93CF93DF9382303D
:102A9000910510F482E090E0E0912903F0912A037F
:102AA00020E030E0A0E0B0E0309719F140815181A2
:102AB0000281138148175907C8F08417950769F4F4
:102AC000109731F012960C93129713961C9327C00F
:102AD0000093290310932A0322C02115310519F010
:102AE0004217530718F49A01BD01EF01DF01F80105
:102AF000DBCF21153105F9F0281B390B24303105C6
:102B000080F48A819B816115710521F0FB0193831B
:102B1000828304C090932A0380932903FE01329696
:102B200044C0FE01E20FF31F8193919322503109BB
:102B3000398328833AC02091270330912803232B1F
:102B400041F4209102013091030130932803209336
:102B5000270320910001309101012115310541F435
:102B60002DB73EB74091040150910501241B350B50
:102B7000E0912703F0912803E217F307A0F42E1B3E
:102B80003F0B2817390778F0AC014E5F5F4F2417D1
:102B9000350748F04E0F5F1F5093280340932703DB
:102BA0008193919302C0E0E0F0E0CF01DF91CF91FB
:102BB0001F910F910895CF93DF93009709F481C07F
:102BC000FC01329713821282A0912903B0912A034B
:102BD000109781F420813181820F931F2091270368
:102BE000309128032817390751F5F0932803E09313
:102BF000270367C0ED0120E030E0CE17DF0740F487
:102C00004A815B819E0141155105F1F0EA01F5CF42
:102C1000D383C28340815181840F951FC817D90780
:102C200059F488819981840F951F0296918380833E
:102C30008A819B81938382832115310529F4F09346
:102C40002A03E09329033DC0E901FB83EA8349910C
:102C50005991C40FD51FEC17FD0761F48081918154
:102C6000840F951F0296E90199838883828193815D
:102C70009B838A83E0E0F0E012968D919C911397FC
:102C8000009719F0FD01DC01F7CF8D919C91119710
:102C90009D012E5F3F4F820F931F2091270330919C
:102CA00028032817390769F4309729F410922A036A
:102CB0001092290302C013821282B0932803A093BA
:102CC0002703DF91CF910895A0E0B0E0EAE6F6E1B6
:102CD0000C948A14EC01009721F4CB010E94431557
:102CE000B4C0FC01E60FF71F9C0122503109E21726
:102CF000F30708F4A8C0D9010D911C91119706178C
:102D00001707B0F00530110508F49BC0C8010497FF
:102D10008617970708F495C002501109061B170B78
:102D2000019311936D937C93CF010E94DB1589C0B1
:102D30005B01A01AB10A4C01800E911EA0912903DB
:102D4000B0912A03612C712CE12CF12C109709F41D
:102D500046C08D919C911197A815B905B1F56C01EC
:102D600042E0C40ED11CCA14DB0478F14C018A186D
:102D70009B08640142E0C40ED11C1296BC901297CD
:102D80001396AC91B5E0CB16D10440F0B282A38388
:102D900091828082D9016D937C9309C00E5F1F4F91
:102DA000800F911FF90191838083EB2DFA2FE1149D
:102DB000F10431F0D7011396FC93EE93129741C0C2
:102DC000F0932A03E09329033CC06816790608F4BF
:102DD0003C017D0112960D90BC91A02DB7CF809142
:102DE00027039091280388169906E1F46616770662
:102DF000C8F48091000190910101009741F48DB7D2
:102E00009EB74091040150910501841B950BE81772
:102E1000F907C8F4F0932803E0932703F9017183BD
:102E200060830FC0CB010E9443157C01009759F0CD
:102E3000A801BE010E942F17CE010E94DB15C70119
:102E400004C0CE0102C080E090E0CDB7DEB7EEE076
:102E50000C94A61481E090E0F8940C943F17FB01C9
:102E6000DC0102C001900D9241505040D8F7089506
:102E7000FB01DC0101900D920020E1F7089511E0C3
:102E8000C3E4D1E004C0FE010E943D152196C43484
:082E9000D107C9F7F894FFCF48
:102E980000002B038000000006090000FF0000006E
:102EA8000403000000000000070700000000000005
:102EB8000500000000000000010000000000000004
:102EC80000000000000000000000000000000000FA
:102ED8000000000000000000020000000001026E77
:102EE8000198014E02C901A701BB01000000006E54
:102EF800050B057A0200000000A3026E012D03A253
:102F080002F3020B038A0220300020006361702064
:102F18006F70656E2F636C6F73652E2E2E000D0A11
:102F2800007B2262696E4964223A2200222C2262C6
:102F3800696E537461747573223A2200227D0023EE
:022F4800000087
:00000001FF
